:020000040000FA
:0600000041EF04F01200C4
:020006000000F8
:0800080094900A0EC16E050E72
:1000100079D9836A95689690969296948490849202
:1000200084940F0E6FD9956A300E5DD9300E5BD96E
:10003000300E59D9380E57D9060E55D9180E53D946
:100040000C0E51D900016B6B6BC06AF01200010EEF
:100050004AD9020E57D9E66AE66A32D8E552E55225
:100060001200D9CFE6FFE1CFD9FF020EE12683507F
:10007000DF6E8492849084848350DF6EFE0EDB50AA
:10008000836E8494DF50836EDE522D0EDD6E010E82
:10009000DB520CE0DB06010EDB5208E00000000042
:1000A0000000000000000000DB06F5D7020EE15C56
:1000B00002E2E16AE552E16EE552E7CFD9FF1200B4
:1000C000D9CFE6FFE1CFD9FF020EE126FE0EDB50CD
:1000D000010805E2010EF36EFE0EF3CFDBFFFD0E0D
:1000E000DB500F0805E20F0EF36EFD0EF3CFDBFFC2
:1000F000FE0EDBCF6AF0FD0EDBCF6BF0FE0EDB04F5
:1001000003E1C00EDF6E02D0800EDF6EFD0EDB98C5
:10011000DB9ADB9CDB9EFD0EDB50DF12DFCFE6FFC0
:10012000A0DFE552DE522D0EDD6E010EDB520CE03B
:10013000DB06010EDB5208E00000000000000000BA
:1001400000000000DB06F5D7020EE15C02E2E16A86
:10015000E552E16EE552E7CFD9FF1200D9CFE6FFB5
:10016000E1CFD9FF030EE1268350DE6EDD6A000188
:100170006B510F080BE200016A5102E068DF06D004
:10018000E66A010EE66E9CDFE552E55284928480B9
:1001900084848350DE6EDD6AFE0EDB50836E8494B1
:1001A000DF50836E2D0EF36E020EF3CFDBFF020ED7
:1001B000DB520CE0DB06020EDB5208E00000000020
:1001C0000000000000000000DB06F5D700016B2BEB
:1001D000030EE15C02E2E16AE552E16EE552E7CF2F
:1001E000D9FF12009DD8E652FC0EDBCFE6FFFD0ED4
:1001F0009CD8FE0EDBCFE6FFB1DFE552E5527ED0A4
:100200008FD8FC0EDBCFF6FFFD0EDBCFF7FFFE0E27
:10021000DBCFF8FF0800F55016E0D950FC0FE96E6F
:10022000FF0EDA20EA6EEFCFF6FFEE2AEFCFF7FFF0
:10023000000EEE22EFCFF8FFEE220800F550E66E3A
:100240008DDFE552DED75AD052D8FD0EDBCF14F049
:10025000FE0EDBCF15F0166A14C0E6FF15C0E6FFF0
:1002600016C0E6FFCDDFE552E552E55247D058D83B
:10027000FD0EDBCFE9FFFE0EDBCFEAFFEF500EE015
:10028000FD0EDBCFE9FFDB2AFE0EDBCFEAFF01E349
:10029000DB2AEF50E66E62DFE552EAD72FD040D876
:1002A000070EE126D9CFE6FFDACFE6FF32D896EC8B
:1002B00002F0E552E552E552E552060EDB6AD9CF6F
:1002C000E6FFDACFE6FFD3DFE552E552070EE15C49
:1002D00002E2E16AE552E16E11D009D81AD8DFDFF7
:1002E000E552E5520BD0E66EBCDEE552120018D89E
:1002F000FB0EDBCFE6FFFC0E95EF01F0E552E7CFFA
:10030000D9FF1200E66EE66AF9EC01F0E552E5521B
:100310001200FD0EDBCFE6FFFE0EDBCFE6FF120084
:10032000D9CFE6FFE1CFD9FF1200DBCFE6FFC8DE71
:06033000E552E552120047
:0A033600D9CFE6FFE1CFD9FF040E96
:10034000E126D950FD0FE96EFF0EDA20EA6EEE507D
:10035000ED1045E05F0EF36E020EF3CFDBFF020EF1
:10036000DB520CE0DB06020EDB5208E0000000006E
:100370000000000000000000DB06F5D7010EDE6E75
:10038000DD6ADECF14F0DDCF15F0FD0EDBCF16F009
:10039000FE0EDBCF17F015501718E8AE02D0173459
:1003A00004D01650145C1750155819E2620EF36E03
:1003B000030EF3CFDBFF030EDB520CE0DB06030E74
:1003C000DB5208E000000000000000000000000018
:1003D000DB06F5D7DF2A010E01E3DB2AD2D7040EB4
:1003E000E15C02E2E16AE552E16EE552E7CFD9FF56
:1003F0001200D9CFE6FFE1CFD9FF040EE126D95094
:10040000FD0FE96EFF0EDA20EA6EEE50ED1051E0BE
:100410005E0EF36E020EF3CFDBFF020EDB520CE03A
:10042000DB06020EDB5208E00000000000000000C6
:1004300000000000DB06F5D7090EE66EE66A7BDFFA
:10044000E552E552010EDE6EDD6ADECF14F0DDCF3F
:1004500015F0FD0EDBCF16F0FE0EDBCF17F01550BA
:100460001718E8AE02D0173404D01650145C175099
:1004700015581FE2600EF36E030EF3CFDBFF030E81
:10048000DB520CE0DB06030EDB5208E0000000004C
:100490000000000000000000DB06F5D7090EE66E44
:1004A000E66A49DFE552E552DF2A010E01E3DB2A65
:1004B000CCD7040EE15C02E2E16AE552E16EE5525E
:1004C000E7CFD9FF1200D9CFE6FFE1CFD9FF020E67
:1004D000E126DE6ADD6ADECF14F0DDCF15F0FD0E19
:1004E000DBCF16F0FE0EDBCF17F015501718E8AE75
:1004F00002D0173404D01650145C175015580CE273
:10050000E80EE66E030EE66E74DFE552E552DF2A72
:10051000010EE1E3DB2ADFD7020EE15C02E2E16AD1
:0C052000E552E16EE552E7CFD9FF120072
:04052C00D9CFE6FF3E
:10053000DACFE6FFFA0EE3CFD9FFFB0EE3CFDAFF07
:10054000FD0EE35209E72D0EDE6EFC0EE31EE32ADC
:10055000FD0ED8B4E306E31EE652E652E652FD0E67
:10056000E124E76EFF0EE220E46EE652F70EE3CFE1
:10057000E6FFF70EE3CFE6FF06EC03F0F90EE12409
:10058000E96EFF0EE220EA6EF6EC02F00AE1F3EC0F
:1005900002F009E1F6EC02F008E1F3EC02F007E109
:1005A00008D001EC03F0FCEC02F001EC03F0FCECF1
:1005B00002F001EC03F0DE6AF90EE126FF0EE22202
:1005C000FF0EE3CFDAFFE552FF0EE3CFD9FFE5528E
:1005D000FC0EE124E96EFF0EE220EA6EEECFF3FF9F
:1005E000EFCFF4FF1200EF380F0B1200EF500F0B9C
:1005F00002E1EE52D8841200EF380F0B300FDE6E9E
:100600001200EE500F0B300FDE6E1200FC0EE3CF27
:10061000E9FFFD0EE3CFEAFF100EE66EEE6AEE6A2A
:10062000EF6AD890FD0EE336FE0EE336ED36ED367A
:10063000EF36FF0EE30609E027EC03F0EE5227EC5D
:1006400003F0EE5227EC03F0EDD7E56E1200030E37
:10065000EF24E8B6EF6E300EEF24E8BEEF6E000C2C
:10066000800ECB6EBE6A92989494BD9ABD98F00E9F
:10067000BD140C09BD6EBB6A93969492BA9ABA984F
:10068000F00EBA140C09BA6ECA84120035D803E110
:100690008988400E02D08998500EBE6E15D8899870
:1006A000BE6AE552E7CFD9FF120026D803E18A8659
:1006B000280E02D08A96500EBB6E06D88A96BB6A68
:1006C000E552E7CFD9FF1200640E086E096AFC0EEE
:1006D000DBCF0DF0FD0EDBCF0EF004EC04F006C016
:1006E00014F007C015F006C0E6FF07C0E6FFF9ECFE
:1006F00001F0E552E5521200D9CFE6FFE1CFD9FF74
:06070000FE0EDB501200AA
:0A070600060EF66E000EF76E000EF0
:10071000F86E00010900F550656F0900F550666F2D
:1007200003E1656701D03DD00900F550606F090015
:10073000F550616F0900F550626F09000900F5502E
:10074000E96E0900F550EA6E090009000900F5504C
:10075000636F0900F550646F09000900F6CF67F078
:10076000F7CF68F0F8CF69F060C0F6FF61C0F7FF1F
:1007700062C0F8FF0001635302E1645307E009001F
:10078000F550EE6E6307F8E26407F9D767C0F6FF2D
:1007900068C0F7FF69C0F8FF00016507000E665BDF
:0407A000BFD71200AD
:0C07A400D9CFE6FFE1CFD9FFE652DF6AB3
:1007B00030EC03F0030EE66EE66A010EE66E46ECE0
:1007C00003F01DD8E66A55EC03F019D8010EE66E69
:1007D00055EC03F014D8E66A46EC03F005D8E55270
:1007E000E552E7CFD9FF1200E552E552E552010E7E
:1007F000E66EE66A63EC02F0E552E5521200F4DFC1
:08080000030EE66EE66A120029
:0808080009C013F008C012F052
:1008100008500D02F4CF07F0F3CF06F009500E0296
:10082000F4CF09F0F3CF08F00D02F3500726F4508F
:100830000822E86A092212500E02F3500726F450EB
:100840000822E86A09220EAE2AEF04F01250085E70
:100850001350095A13AE000C0D50085E0E50095A81
:02086000000C8A
:0E086200000EF36E00EE00F0080E01D812003A
:10087000EA6002D0EE6AFCD7F350E9601200EE6A3B
:02088000FCD7A3
:0E08820013EE00F023EE00F0F86A019C83EC08
:0E08900003F05CEC04F0D2EC03F0FBD7120096
:02089E0004EC68
:1008A00000F027EC00F093849388938A93809382DE
:0808B000F19E956A836A1200B3
:0208B80012002C
:020000040030CA
:0100000024DB
:010001000EF0
:0100020039C4
:010003001EDE
:010005008179
:010006008178
:010008000FE8
:01000900C036
:01000A000FE6
:01000B00E014
:01000C000FE4
:01000D0040B2
:00000001FF
